{
  "_format": "hh-sol-artifact-1",
  "contractName": "SavePiggy",
  "sourceName": "contracts/SavePiggy.sol",
  "abi": [
    {
      "inputs": [
        {
          "internalType": "string",
          "name": "_savePurpose",
          "type": "string"
        },
        {
          "internalType": "uint256",
          "name": "_unlockedTime",
          "type": "uint256"
        },
        {
          "internalType": "address",
          "name": "_developerAddress",
          "type": "address"
        }
      ],
      "stateMutability": "nonpayable",
      "type": "constructor"
    },
    {
      "inputs": [
        {
          "internalType": "address",
          "name": "owner",
          "type": "address"
        }
      ],
      "name": "OwnableInvalidOwner",
      "type": "error"
    },
    {
      "inputs": [
        {
          "internalType": "address",
          "name": "account",
          "type": "address"
        }
      ],
      "name": "OwnableUnauthorizedAccount",
      "type": "error"
    },
    {
      "anonymous": false,
      "inputs": [
        {
          "indexed": true,
          "internalType": "address",
          "name": "owner",
          "type": "address"
        },
        {
          "indexed": false,
          "internalType": "uint256",
          "name": "amount",
          "type": "uint256"
        },
        {
          "indexed": false,
          "internalType": "uint256",
          "name": "penaltyAmount",
          "type": "uint256"
        }
      ],
      "name": "EmergencyWithdrawn",
      "type": "event"
    },
    {
      "anonymous": false,
      "inputs": [
        {
          "indexed": true,
          "internalType": "address",
          "name": "previousOwner",
          "type": "address"
        },
        {
          "indexed": true,
          "internalType": "address",
          "name": "newOwner",
          "type": "address"
        }
      ],
      "name": "OwnershipTransferred",
      "type": "event"
    },
    {
      "anonymous": false,
      "inputs": [
        {
          "indexed": true,
          "internalType": "address",
          "name": "saver",
          "type": "address"
        },
        {
          "indexed": false,
          "internalType": "uint256",
          "name": "amount",
          "type": "uint256"
        }
      ],
      "name": "Saved",
      "type": "event"
    },
    {
      "anonymous": false,
      "inputs": [
        {
          "indexed": true,
          "internalType": "enum SavePiggy.Token",
          "name": "tokenId",
          "type": "uint8"
        },
        {
          "indexed": false,
          "internalType": "address",
          "name": "oldAddress",
          "type": "address"
        },
        {
          "indexed": false,
          "internalType": "address",
          "name": "newAddress",
          "type": "address"
        }
      ],
      "name": "TokenAddressUpdated",
      "type": "event"
    },
    {
      "anonymous": false,
      "inputs": [
        {
          "indexed": false,
          "internalType": "uint256",
          "name": "oldTime",
          "type": "uint256"
        },
        {
          "indexed": false,
          "internalType": "uint256",
          "name": "newTime",
          "type": "uint256"
        }
      ],
      "name": "UnlockedTimeUpdated",
      "type": "event"
    },
    {
      "anonymous": false,
      "inputs": [
        {
          "indexed": true,
          "internalType": "address",
          "name": "owner",
          "type": "address"
        },
        {
          "indexed": false,
          "internalType": "uint256",
          "name": "amount",
          "type": "uint256"
        }
      ],
      "name": "Withdrawn",
      "type": "event"
    },
    {
      "inputs": [],
      "name": "developerAddress",
      "outputs": [
        {
          "internalType": "address",
          "name": "",
          "type": "address"
        }
      ],
      "stateMutability": "view",
      "type": "function"
    },
    {
      "inputs": [
        {
          "internalType": "enum SavePiggy.Token",
          "name": "_tokenId",
          "type": "uint8"
        }
      ],
      "name": "emergencyWithdraw",
      "outputs": [
        {
          "internalType": "bool",
          "name": "",
          "type": "bool"
        }
      ],
      "stateMutability": "nonpayable",
      "type": "function"
    },
    {
      "inputs": [
        {
          "internalType": "enum SavePiggy.Token",
          "name": "_tokenId",
          "type": "uint8"
        }
      ],
      "name": "getBalance",
      "outputs": [
        {
          "internalType": "uint256",
          "name": "",
          "type": "uint256"
        }
      ],
      "stateMutability": "view",
      "type": "function"
    },
    {
      "inputs": [],
      "name": "getTotalBalance",
      "outputs": [
        {
          "internalType": "uint256[]",
          "name": "",
          "type": "uint256[]"
        }
      ],
      "stateMutability": "view",
      "type": "function"
    },
    {
      "inputs": [
        {
          "internalType": "enum SavePiggy.Token",
          "name": "",
          "type": "uint8"
        }
      ],
      "name": "hasWithdrawnToken",
      "outputs": [
        {
          "internalType": "bool",
          "name": "",
          "type": "bool"
        }
      ],
      "stateMutability": "view",
      "type": "function"
    },
    {
      "inputs": [],
      "name": "owner",
      "outputs": [
        {
          "internalType": "address",
          "name": "",
          "type": "address"
        }
      ],
      "stateMutability": "view",
      "type": "function"
    },
    {
      "inputs": [],
      "name": "renounceOwnership",
      "outputs": [],
      "stateMutability": "nonpayable",
      "type": "function"
    },
    {
      "inputs": [
        {
          "internalType": "enum SavePiggy.Token",
          "name": "_tokenId",
          "type": "uint8"
        },
        {
          "internalType": "uint256",
          "name": "_amount",
          "type": "uint256"
        }
      ],
      "name": "save",
      "outputs": [
        {
          "internalType": "bool",
          "name": "",
          "type": "bool"
        }
      ],
      "stateMutability": "nonpayable",
      "type": "function"
    },
    {
      "inputs": [],
      "name": "savePurpose",
      "outputs": [
        {
          "internalType": "string",
          "name": "",
          "type": "string"
        }
      ],
      "stateMutability": "view",
      "type": "function"
    },
    {
      "inputs": [
        {
          "internalType": "enum SavePiggy.Token",
          "name": "",
          "type": "uint8"
        }
      ],
      "name": "tokenDetails",
      "outputs": [
        {
          "internalType": "address",
          "name": "tokenAddress",
          "type": "address"
        },
        {
          "internalType": "uint256",
          "name": "balance",
          "type": "uint256"
        }
      ],
      "stateMutability": "view",
      "type": "function"
    },
    {
      "inputs": [
        {
          "internalType": "address",
          "name": "newOwner",
          "type": "address"
        }
      ],
      "name": "transferOwnership",
      "outputs": [],
      "stateMutability": "nonpayable",
      "type": "function"
    },
    {
      "inputs": [],
      "name": "unlockedTime",
      "outputs": [
        {
          "internalType": "uint256",
          "name": "",
          "type": "uint256"
        }
      ],
      "stateMutability": "view",
      "type": "function"
    },
    {
      "inputs": [
        {
          "internalType": "enum SavePiggy.Token",
          "name": "_tokenId",
          "type": "uint8"
        },
        {
          "internalType": "address",
          "name": "_newAddress",
          "type": "address"
        }
      ],
      "name": "updateTokenAddress",
      "outputs": [],
      "stateMutability": "nonpayable",
      "type": "function"
    },
    {
      "inputs": [
        {
          "internalType": "uint256",
          "name": "_newUnlockedTime",
          "type": "uint256"
        }
      ],
      "name": "updateUnlockedTime",
      "outputs": [],
      "stateMutability": "nonpayable",
      "type": "function"
    },
    {
      "inputs": [
        {
          "internalType": "enum SavePiggy.Token",
          "name": "_tokenId",
          "type": "uint8"
        }
      ],
      "name": "withdraw",
      "outputs": [
        {
          "internalType": "bool",
          "name": "",
          "type": "bool"
        }
      ],
      "stateMutability": "nonpayable",
      "type": "function"
    }
  ],
  "bytecode": "0x608060405234801561001057600080fd5b50604051612ae9380380612ae9833981810160405281019061003291906106f5565b33600073ffffffffffffffffffffffffffffffffffffffff168173ffffffffffffffffffffffffffffffffffffffff16036100a55760006040517f1e4fbdf700000000000000000000000000000000000000000000000000000000815260040161009c9190610773565b60405180910390fd5b6100b48161042860201b60201c565b50600073ffffffffffffffffffffffffffffffffffffffff168173ffffffffffffffffffffffffffffffffffffffff1603610124576040517f08c379a000000000000000000000000000000000000000000000000000000000815260040161011b906107eb565b60405180910390fd5b428211610166576040517f08c379a000000000000000000000000000000000000000000000000000000000815260040161015d90610857565b60405180910390fd5b82600290816101759190610a8e565b508160018190555080600360006101000a81548173ffffffffffffffffffffffffffffffffffffffff021916908373ffffffffffffffffffffffffffffffffffffffff1602179055506040518060400160405280736b175474e89094c44da98b954eedeac495271d0f73ffffffffffffffffffffffffffffffffffffffff16815260200160008152506004600080600281111561021557610214610b60565b5b600281111561022757610226610b60565b5b815260200190815260200160002060008201518160000160006101000a81548173ffffffffffffffffffffffffffffffffffffffff021916908373ffffffffffffffffffffffffffffffffffffffff16021790555060208201518160010155905050604051806040016040528073a0b86991c6218b36c1d19d4a2e9eb0ce3606eb4873ffffffffffffffffffffffffffffffffffffffff168152602001600081525060046000600160028111156102e1576102e0610b60565b5b60028111156102f3576102f2610b60565b5b815260200190815260200160002060008201518160000160006101000a81548173ffffffffffffffffffffffffffffffffffffffff021916908373ffffffffffffffffffffffffffffffffffffffff16021790555060208201518160010155905050604051806040016040528073dac17f958d2ee523a2206206994597c13d831ec773ffffffffffffffffffffffffffffffffffffffff1681526020016000815250600460006002808111156103ac576103ab610b60565b5b60028111156103be576103bd610b60565b5b815260200190815260200160002060008201518160000160006101000a81548173ffffffffffffffffffffffffffffffffffffffff021916908373ffffffffffffffffffffffffffffffffffffffff16021790555060208201518160010155905050505050610b8f565b60008060009054906101000a900473ffffffffffffffffffffffffffffffffffffffff169050816000806101000a81548173ffffffffffffffffffffffffffffffffffffffff021916908373ffffffffffffffffffffffffffffffffffffffff1602179055508173ffffffffffffffffffffffffffffffffffffffff168173ffffffffffffffffffffffffffffffffffffffff167f8be0079c531659141344cd1fd0a4f28419497f9722a3daafe3b4186f6b6457e060405160405180910390a35050565b6000604051905090565b600080fd5b600080fd5b600080fd5b600080fd5b6000601f19601f8301169050919050565b7f4e487b7100000000000000000000000000000000000000000000000000000000600052604160045260246000fd5b6105538261050a565b810181811067ffffffffffffffff821117156105725761057161051b565b5b80604052505050565b60006105856104ec565b9050610591828261054a565b919050565b600067ffffffffffffffff8211156105b1576105b061051b565b5b6105ba8261050a565b9050602081019050919050565b60005b838110156105e55780820151818401526020810190506105ca565b60008484015250505050565b60006106046105ff84610596565b61057b565b9050828152602081018484840111156106205761061f610505565b5b61062b8482856105c7565b509392505050565b600082601f83011261064857610647610500565b5b81516106588482602086016105f1565b91505092915050565b6000819050919050565b61067481610661565b811461067f57600080fd5b50565b6000815190506106918161066b565b92915050565b600073ffffffffffffffffffffffffffffffffffffffff82169050919050565b60006106c282610697565b9050919050565b6106d2816106b7565b81146106dd57600080fd5b50565b6000815190506106ef816106c9565b92915050565b60008060006060848603121561070e5761070d6104f6565b5b600084015167ffffffffffffffff81111561072c5761072b6104fb565b5b61073886828701610633565b935050602061074986828701610682565b925050604061075a868287016106e0565b9150509250925092565b61076d816106b7565b82525050565b60006020820190506107886000830184610764565b92915050565b600082825260208201905092915050565b7f496e76616c696420646576656c6f706572206164647265737300000000000000600082015250565b60006107d560198361078e565b91506107e08261079f565b602082019050919050565b60006020820190508181036000830152610804816107c8565b9050919050565b7f496e76616c696420756e6c6f636b65642074696d650000000000000000000000600082015250565b600061084160158361078e565b915061084c8261080b565b602082019050919050565b6000602082019050818103600083015261087081610834565b9050919050565b600081519050919050565b7f4e487b7100000000000000000000000000000000000000000000000000000000600052602260045260246000fd5b600060028204905060018216806108c957607f821691505b6020821081036108dc576108db610882565b5b50919050565b60008190508160005260206000209050919050565b60006020601f8301049050919050565b600082821b905092915050565b6000600883026109447fffffffffffffffffffffffffffffffffffffffffffffffffffffffffffffffff82610907565b61094e8683610907565b95508019841693508086168417925050509392505050565b6000819050919050565b600061098b61098661098184610661565b610966565b610661565b9050919050565b6000819050919050565b6109a583610970565b6109b96109b182610992565b848454610914565b825550505050565b600090565b6109ce6109c1565b6109d981848461099c565b505050565b5b818110156109fd576109f26000826109c6565b6001810190506109df565b5050565b601f821115610a4257610a13816108e2565b610a1c846108f7565b81016020851015610a2b578190505b610a3f610a37856108f7565b8301826109de565b50505b505050565b600082821c905092915050565b6000610a6560001984600802610a47565b1980831691505092915050565b6000610a7e8383610a54565b9150826002028217905092915050565b610a9782610877565b67ffffffffffffffff811115610ab057610aaf61051b565b5b610aba82546108b1565b610ac5828285610a01565b600060209050601f831160018114610af85760008415610ae6578287015190505b610af08582610a72565b865550610b58565b601f198416610b06866108e2565b60005b82811015610b2e57848901518255600182019150602085019450602081019050610b09565b86831015610b4b5784890151610b47601f891682610a54565b8355505b6001600288020188555050505b505050505050565b7f4e487b7100000000000000000000000000000000000000000000000000000000600052602160045260246000fd5b611f4b80610b9e6000396000f3fe608060405234801561001057600080fd5b50600436106100f55760003560e01c8063a698fb0411610097578063d53bc7b811610066578063d53bc7b814610277578063e3a1248014610293578063ed4ec054146102c3578063f2fde38b146102f3576100f5565b8063a698fb04146101db578063b732ff33146101f9578063c6ab5d9014610229578063caccd7f714610259576100f5565b80633de6f379116100d35780633de6f3791461016657806370dc203914610182578063715018a6146101b35780638da5cb5b146101bd576100f5565b80630e5c6f42146100fa57806312b5834914610118578063155622a414610136575b600080fd5b61010261030f565b60405161010f91906114bc565b60405180910390f35b610120610315565b60405161012d9190611595565b60405180910390f35b610150600480360381019061014b91906115e1565b61047e565b60405161015d9190611629565b60405180910390f35b610180600480360381019061017b91906116a2565b6108dd565b005b61019c600480360381019061019791906115e1565b610a7d565b6040516101aa9291906116f1565b60405180910390f35b6101bb610ac1565b005b6101c5610ad5565b6040516101d2919061171a565b60405180910390f35b6101e3610afe565b6040516101f091906117c5565b60405180910390f35b610213600480360381019061020e91906115e1565b610b8c565b6040516102209190611629565b60405180910390f35b610243600480360381019061023e91906115e1565b610bac565b6040516102509190611629565b60405180910390f35b610261610f3a565b60405161026e919061171a565b60405180910390f35b610291600480360381019061028c9190611813565b610f60565b005b6102ad60048036038101906102a891906115e1565b610ff5565b6040516102ba91906114bc565b60405180910390f35b6102dd60048036038101906102d89190611840565b611039565b6040516102ea9190611629565b60405180910390f35b61030d60048036038101906103089190611880565b6112ca565b005b60015481565b60606000600367ffffffffffffffff811115610334576103336118ad565b5b6040519080825280602002602001820160405280156103625781602001602082028036833780820191505090505b5090506004600080600281111561037c5761037b6118dc565b5b600281111561038e5761038d6118dc565b5b815260200190815260200160002060010154816000815181106103b4576103b361190b565b5b60200260200101818152505060046000600160028111156103d8576103d76118dc565b5b60028111156103ea576103e96118dc565b5b815260200190815260200160002060010154816001815181106104105761040f61190b565b5b60200260200101818152505060046000600280811115610433576104326118dc565b5b6002811115610445576104446118dc565b5b8152602001908152602001600020600101548160028151811061046b5761046a61190b565b5b6020026020010181815250508091505090565b6000610488611350565b81600560008260028111156104a05761049f6118dc565b5b60028111156104b2576104b16118dc565b5b815260200190815260200160002060009054906101000a900460ff161561050e576040517f08c379a000000000000000000000000000000000000000000000000000000000815260040161050590611986565b60405180910390fd5b6001544210610552576040517f08c379a0000000000000000000000000000000000000000000000000000000008152600401610549906119f2565b60405180910390fd5b60006004600085600281111561056b5761056a6118dc565b5b600281111561057d5761057c6118dc565b5b815260200190815260200160002060000160009054906101000a900473ffffffffffffffffffffffffffffffffffffffff1690506000600460008660028111156105ca576105c96118dc565b5b60028111156105dc576105db6118dc565b5b8152602001908152602001600020600101549050600073ffffffffffffffffffffffffffffffffffffffff168273ffffffffffffffffffffffffffffffffffffffff160361065f576040517f08c379a000000000000000000000000000000000000000000000000000000000815260040161065690611a5e565b60405180910390fd5b600081116106a2576040517f08c379a000000000000000000000000000000000000000000000000000000000815260040161069990611aca565b60405180910390fd5b60006064600f836106b39190611b19565b6106bd9190611b8a565b9050600081836106cd9190611bbb565b90506000600460008960028111156106e8576106e76118dc565b5b60028111156106fa576106f96118dc565b5b815260200190815260200160002060010181905550600160056000896002811115610728576107276118dc565b5b600281111561073a576107396118dc565b5b815260200190815260200160002060006101000a81548160ff0219169083151502179055508373ffffffffffffffffffffffffffffffffffffffff1663a9059cbb600360009054906101000a900473ffffffffffffffffffffffffffffffffffffffff16846040518363ffffffff1660e01b81526004016107bc9291906116f1565b6020604051808303816000875af11580156107db573d6000803e3d6000fd5b505050506040513d601f19601f820116820180604052508101906107ff9190611c1b565b508373ffffffffffffffffffffffffffffffffffffffff1663a9059cbb33836040518363ffffffff1660e01b815260040161083b9291906116f1565b6020604051808303816000875af115801561085a573d6000803e3d6000fd5b505050506040513d601f19601f8201168201806040525081019061087e9190611c1b565b503373ffffffffffffffffffffffffffffffffffffffff167fb47853100b79d8afa66237bdb4f7f09d96628ee23aa8aac8a8c21a901c67ddb282846040516108c7929190611c48565b60405180910390a2600195505050505050919050565b6108e5611350565b600073ffffffffffffffffffffffffffffffffffffffff168173ffffffffffffffffffffffffffffffffffffffff1603610954576040517f08c379a000000000000000000000000000000000000000000000000000000000815260040161094b90611cbd565b60405180910390fd5b60006004600084600281111561096d5761096c6118dc565b5b600281111561097f5761097e6118dc565b5b815260200190815260200160002060000160009054906101000a900473ffffffffffffffffffffffffffffffffffffffff16905081600460008560028111156109cb576109ca6118dc565b5b60028111156109dd576109dc6118dc565b5b815260200190815260200160002060000160006101000a81548173ffffffffffffffffffffffffffffffffffffffff021916908373ffffffffffffffffffffffffffffffffffffffff160217905550826002811115610a3f57610a3e6118dc565b5b7f94335f05fdf7327e98cb1fa67e996297f9cd1d8ab2a354bc833422fdadf1277c8284604051610a70929190611cdd565b60405180910390a2505050565b60046020528060005260406000206000915090508060000160009054906101000a900473ffffffffffffffffffffffffffffffffffffffff16908060010154905082565b610ac9611350565b610ad360006113d7565b565b60008060009054906101000a900473ffffffffffffffffffffffffffffffffffffffff16905090565b60028054610b0b90611d35565b80601f0160208091040260200160405190810160405280929190818152602001828054610b3790611d35565b8015610b845780601f10610b5957610100808354040283529160200191610b84565b820191906000526020600020905b815481529060010190602001808311610b6757829003601f168201915b505050505081565b60056020528060005260406000206000915054906101000a900460ff1681565b6000610bb6611350565b8160056000826002811115610bce57610bcd6118dc565b5b6002811115610be057610bdf6118dc565b5b815260200190815260200160002060009054906101000a900460ff1615610c3c576040517f08c379a0000000000000000000000000000000000000000000000000000000008152600401610c3390611986565b60405180910390fd5b600060046000856002811115610c5557610c546118dc565b5b6002811115610c6757610c666118dc565b5b815260200190815260200160002060000160009054906101000a900473ffffffffffffffffffffffffffffffffffffffff169050600060046000866002811115610cb457610cb36118dc565b5b6002811115610cc657610cc56118dc565b5b8152602001908152602001600020600101549050600154421015610d1f576040517f08c379a0000000000000000000000000000000000000000000000000000000008152600401610d1690611db2565b60405180910390fd5b600073ffffffffffffffffffffffffffffffffffffffff168273ffffffffffffffffffffffffffffffffffffffff1603610d8e576040517f08c379a0000000000000000000000000000000000000000000000000000000008152600401610d8590611a5e565b60405180910390fd5b60008111610dd1576040517f08c379a0000000000000000000000000000000000000000000000000000000008152600401610dc890611aca565b60405180910390fd5b600060046000876002811115610dea57610de96118dc565b5b6002811115610dfc57610dfb6118dc565b5b815260200190815260200160002060010181905550600160056000876002811115610e2a57610e296118dc565b5b6002811115610e3c57610e3b6118dc565b5b815260200190815260200160002060006101000a81548160ff0219169083151502179055508173ffffffffffffffffffffffffffffffffffffffff1663a9059cbb33836040518363ffffffff1660e01b8152600401610e9c9291906116f1565b6020604051808303816000875af1158015610ebb573d6000803e3d6000fd5b505050506040513d601f19601f82011682018060405250810190610edf9190611c1b565b503373ffffffffffffffffffffffffffffffffffffffff167f7084f5476618d8e60b11ef0d7d3f06914655adb8793e28ff7f018d4c76d505d582604051610f2691906114bc565b60405180910390a260019350505050919050565b600360009054906101000a900473ffffffffffffffffffffffffffffffffffffffff1681565b610f68611350565b428111610faa576040517f08c379a0000000000000000000000000000000000000000000000000000000008152600401610fa190611e1e565b60405180910390fd5b60006001549050816001819055507f5e693d4802ab1979ddb8254c3930807fcea6c9220b5b263ca6f4a3ebef26d9328183604051610fe9929190611c48565b60405180910390a15050565b60006004600083600281111561100e5761100d6118dc565b5b60028111156110205761101f6118dc565b5b8152602001908152602001600020600101549050919050565b60008073ffffffffffffffffffffffffffffffffffffffff1660046000856002811115611069576110686118dc565b5b600281111561107b5761107a6118dc565b5b815260200190815260200160002060000160009054906101000a900473ffffffffffffffffffffffffffffffffffffffff1673ffffffffffffffffffffffffffffffffffffffff1603611103576040517f08c379a00000000000000000000000000000000000000000000000000000000081526004016110fa90611a5e565b60405180910390fd5b60008211611146576040517f08c379a000000000000000000000000000000000000000000000000000000000815260040161113d90611e8a565b60405180910390fd5b6004600084600281111561115d5761115c6118dc565b5b600281111561116f5761116e6118dc565b5b815260200190815260200160002060000160009054906101000a900473ffffffffffffffffffffffffffffffffffffffff1673ffffffffffffffffffffffffffffffffffffffff166323b872dd3330856040518463ffffffff1660e01b81526004016111dd93929190611eaa565b6020604051808303816000875af11580156111fc573d6000803e3d6000fd5b505050506040513d601f19601f820116820180604052508101906112209190611c1b565b508160046000856002811115611239576112386118dc565b5b600281111561124b5761124a6118dc565b5b8152602001908152602001600020600101600082825461126b9190611ee1565b925050819055503373ffffffffffffffffffffffffffffffffffffffff167fed23a82fe3387ce0bc3ec900dee36d8ca8c965f8dc65c02281a59f7e9e69728c836040516112b891906114bc565b60405180910390a26001905092915050565b6112d2611350565b600073ffffffffffffffffffffffffffffffffffffffff168173ffffffffffffffffffffffffffffffffffffffff16036113445760006040517f1e4fbdf700000000000000000000000000000000000000000000000000000000815260040161133b919061171a565b60405180910390fd5b61134d816113d7565b50565b61135861149b565b73ffffffffffffffffffffffffffffffffffffffff16611376610ad5565b73ffffffffffffffffffffffffffffffffffffffff16146113d55761139961149b565b6040517f118cdaa70000000000000000000000000000000000000000000000000000000081526004016113cc919061171a565b60405180910390fd5b565b60008060009054906101000a900473ffffffffffffffffffffffffffffffffffffffff169050816000806101000a81548173ffffffffffffffffffffffffffffffffffffffff021916908373ffffffffffffffffffffffffffffffffffffffff1602179055508173ffffffffffffffffffffffffffffffffffffffff168173ffffffffffffffffffffffffffffffffffffffff167f8be0079c531659141344cd1fd0a4f28419497f9722a3daafe3b4186f6b6457e060405160405180910390a35050565b600033905090565b6000819050919050565b6114b6816114a3565b82525050565b60006020820190506114d160008301846114ad565b92915050565b600081519050919050565b600082825260208201905092915050565b6000819050602082019050919050565b61150c816114a3565b82525050565b600061151e8383611503565b60208301905092915050565b6000602082019050919050565b6000611542826114d7565b61154c81856114e2565b9350611557836114f3565b8060005b8381101561158857815161156f8882611512565b975061157a8361152a565b92505060018101905061155b565b5085935050505092915050565b600060208201905081810360008301526115af8184611537565b905092915050565b600080fd5b600381106115c957600080fd5b50565b6000813590506115db816115bc565b92915050565b6000602082840312156115f7576115f66115b7565b5b6000611605848285016115cc565b91505092915050565b60008115159050919050565b6116238161160e565b82525050565b600060208201905061163e600083018461161a565b92915050565b600073ffffffffffffffffffffffffffffffffffffffff82169050919050565b600061166f82611644565b9050919050565b61167f81611664565b811461168a57600080fd5b50565b60008135905061169c81611676565b92915050565b600080604083850312156116b9576116b86115b7565b5b60006116c7858286016115cc565b92505060206116d88582860161168d565b9150509250929050565b6116eb81611664565b82525050565b600060408201905061170660008301856116e2565b61171360208301846114ad565b9392505050565b600060208201905061172f60008301846116e2565b92915050565b600081519050919050565b600082825260208201905092915050565b60005b8381101561176f578082015181840152602081019050611754565b60008484015250505050565b6000601f19601f8301169050919050565b600061179782611735565b6117a18185611740565b93506117b1818560208601611751565b6117ba8161177b565b840191505092915050565b600060208201905081810360008301526117df818461178c565b905092915050565b6117f0816114a3565b81146117fb57600080fd5b50565b60008135905061180d816117e7565b92915050565b600060208284031215611829576118286115b7565b5b6000611837848285016117fe565b91505092915050565b60008060408385031215611857576118566115b7565b5b6000611865858286016115cc565b9250506020611876858286016117fe565b9150509250929050565b600060208284031215611896576118956115b7565b5b60006118a48482850161168d565b91505092915050565b7f4e487b7100000000000000000000000000000000000000000000000000000000600052604160045260246000fd5b7f4e487b7100000000000000000000000000000000000000000000000000000000600052602160045260246000fd5b7f4e487b7100000000000000000000000000000000000000000000000000000000600052603260045260246000fd5b7f546f6b656e20616c72656164792077697468647261776e000000000000000000600082015250565b6000611970601783611740565b915061197b8261193a565b602082019050919050565b6000602082019050818103600083015261199f81611963565b9050919050565b7f46756e64732061726520616c726561647920756e6c6f636b6564000000000000600082015250565b60006119dc601a83611740565b91506119e7826119a6565b602082019050919050565b60006020820190508181036000830152611a0b816119cf565b9050919050565b7f496e76616c696420746f6b656e00000000000000000000000000000000000000600082015250565b6000611a48600d83611740565b9150611a5382611a12565b602082019050919050565b60006020820190508181036000830152611a7781611a3b565b9050919050565b7f4e6f2066756e647320617661696c61626c650000000000000000000000000000600082015250565b6000611ab4601283611740565b9150611abf82611a7e565b602082019050919050565b60006020820190508181036000830152611ae381611aa7565b9050919050565b7f4e487b7100000000000000000000000000000000000000000000000000000000600052601160045260246000fd5b6000611b24826114a3565b9150611b2f836114a3565b9250828202611b3d816114a3565b91508282048414831517611b5457611b53611aea565b5b5092915050565b7f4e487b7100000000000000000000000000000000000000000000000000000000600052601260045260246000fd5b6000611b95826114a3565b9150611ba0836114a3565b925082611bb057611baf611b5b565b5b828204905092915050565b6000611bc6826114a3565b9150611bd1836114a3565b9250828203905081811115611be957611be8611aea565b5b92915050565b611bf88161160e565b8114611c0357600080fd5b50565b600081519050611c1581611bef565b92915050565b600060208284031215611c3157611c306115b7565b5b6000611c3f84828501611c06565b91505092915050565b6000604082019050611c5d60008301856114ad565b611c6a60208301846114ad565b9392505050565b7f496e76616c696420746f6b656e20616464726573730000000000000000000000600082015250565b6000611ca7601583611740565b9150611cb282611c71565b602082019050919050565b60006020820190508181036000830152611cd681611c9a565b9050919050565b6000604082019050611cf260008301856116e2565b611cff60208301846116e2565b9392505050565b7f4e487b7100000000000000000000000000000000000000000000000000000000600052602260045260246000fd5b60006002820490506001821680611d4d57607f821691505b602082108103611d6057611d5f611d06565b5b50919050565b7f46756e647320617265206c6f636b656400000000000000000000000000000000600082015250565b6000611d9c601083611740565b9150611da782611d66565b602082019050919050565b60006020820190508181036000830152611dcb81611d8f565b9050919050565b7f496e76616c6964206e657720756e6c6f636b65642074696d6500000000000000600082015250565b6000611e08601983611740565b9150611e1382611dd2565b602082019050919050565b60006020820190508181036000830152611e3781611dfb565b9050919050565b7f416d6f756e74206d7573742062652067726561746572207468616e2030000000600082015250565b6000611e74601d83611740565b9150611e7f82611e3e565b602082019050919050565b60006020820190508181036000830152611ea381611e67565b9050919050565b6000606082019050611ebf60008301866116e2565b611ecc60208301856116e2565b611ed960408301846114ad565b949350505050565b6000611eec826114a3565b9150611ef7836114a3565b9250828201905080821115611f0f57611f0e611aea565b5b9291505056fea26469706673582212201ffaaf5a6bf7eea3531007b3e33af55a2eddcd7fa18400ffa35f914b445f4a6364736f6c634300081c0033",
  "linkReferences": {},
  "deployedLinkReferences": {}
}